:400000000040002011000000251200002512000008B5044B1A6803F53F5302331A6001F021F900BFFA46004010B5054C237833B9044B13B10448AFF300800123237010BD2E
:4000400068C1FF1F00000000B8350000084B10B51BB108490848AFF300800848036803B910BD074B002BFBD0BDE81040184700BF000000006CC1FF1FB8350000C8C0FF1F28
:400080000000000030B5ADF2446D00248E94ADF83C424FF48062214690A802F060FE62B601F040FB2146204601F000FD01F036FD0028FBD001F000FE42F2107001F02EF9BD
:4000C000234C0022214601A800F04EFC00220121204600F075FC0223002290A9104600F063F90328F7D000242BE01A4A84FB0223E218E317C3EBE203C3EB03139C420ED1C7
:40010000154D0121284601F023FE0A2001F006F90121681801F01CFE0A2001F0FFF890AB1A5D0E498EA802F023FE06218EA801F00FFE00238E93ADF83C320A2001F0EEF8DD
:400140000134B4F5806FD0DB00200DF2446D30BDA436000089888888CCC0FF1FBC35000008B501F0BDF901F093F910F0010FFAD008BD00BF08B5002001F090FB0620FFF700
:40018000EFFF012001F08AFB08BD00BF08B501F043FA002001F082FB0520FFF7E1FF0020FFF7DEFF012001F079FB01F003FA01F001FA08BD08B5FFF7E9FF10F0010000D03E
:4001C000012008BD10B50446FFF7E0FFC0F383000E2809D8DFE800F0460A11181F26080808082D32373C4100012010BDA4F5F814B4F5803F38D2012010BDA4F5F014B4F507
:40020000003F33D2012010BDA4F5E014B4F5802F2ED2012010BDA4F5C014B4F5002F29D2012010BDA4F58014B4F5801F24D2012010BDB4F5702F21D8012010BDB4F5B81F83
:400240001ED8012010BDB4F5D81F1BD8012010BDB4F5E81F18D8012010BDB4F5F01F15D8012010BD002010BD002010BD002010BD002010BD002010BD002010BD002010BD7D
:40028000002010BD002010BD002010BD002010BD2DE9F04186B00E461546C0F30748C0F30727C4B2002301930293039304930593FFF780FF40BB01F0AFF9002001F0EEFAF2
:4002C0000320FFF74DFF01F075F94046FFF748FF01F070F93846FFF743FF01F06BF92046FFF73EFF01F066F9002406E00020FFF737FF01F05FF930550134AC42F6D30120F8
:4003000001F0CCFA002000E0032006B0BDE8F081531EFF2B30D82DE9F04106460D461446FFF748FF50BB3046FFF74CFF48BBC6F30748C6F30727F6B2FFF71CFF002001F079
:40034000ADFA0220FFF70CFF4046FFF709FF3846FFF706FF3046FFF703FF002604E015F8010BFFF7FDFE0136A642F8D3012001F095FA0020BDE8F081022070470320BDE8D2
:40038000F0810420BDE8F08110B9024B1878704701207047CEC0FF1F10B9024B1870704703207047CEC0FF1F70B50D4614461E46FFF7EAFF10F0010F0BD16402720229468C
:4003C0002046FFF765FF0328F8D0003018BF012070BD032070BD00BF70B5ADF5027D0E4615461C46FFF7D0FF10F0010F28D16D026400E4B24FF40072002102A802F0AFFC3B
:4004000000230093ADF804304FF4807231462846FFF77EFF0328F7D005F5807506F58076601E10F0FF04EFD10123002202A91046FFF7BAFF0328F7D0201C18BF012000E091
:4004400003200DF5027D70BD012903D041B1032905D170474FF480531360002070470420704700BF04E00A7802701A4601310130531E002AF7D1704702E001701A46013070
:40048000531E002AF9D17047016821B94FF0FF3316E0013200E00A461378202B01D93A2BF7D13A2B0BD110B44C1C0B78303B092B08D8A24209D15BB9013202600AE0002353
:4004C000184670474FF0FF3304E04FF0FF3301E04FF0FF33184610BC704700BFF8B5037903B30446066B00F134070123324639464078FFF771FFB8B900232371636AF31A2E
:40050000E269934212D2E57808E0E3691E440123324639466078FFF75FFF013D012DF4D80020F8BD0020F8BD0120F8BD0020F8BD70B5036B8B4212D004460D46FFF7CEFF4E
:40054000064668B901232A4604F134016078FFF72BFF10B101264FF0FF35256300E00026304670BD10B50446002303714FF0FF330363FFF7DDFF80BB94F8332294F8323271
:4005800043EA02231BB2194A934228D194F86D2094F86C301B0443EA026394F86B2043EA022394F86A20134323F07F43104A934217D094F8892094F888301B0443EA02630F
:4005C00094F8872043EA022394F88620134323F07F43074A934206D110BD032010BD022010BD002010BD012010BD00BF55AAFFFF46415400F0B585B00646174600230360F5
:400600000846FFF741FF051EC0F27E81CC4B53F82540002C00F07A813460237873B16078FFF7B2FE10F0010F08D1002F00F0708110F0040F40F06E81002092E1002323703F
:40064000E8B26070FFF7A8FE10F0010F40F064811FB110F0040F40F0618100212046FFF781FF01281CD000262EE004F134030A0102F5DF7213441A7952B1D87A9A7A12042C
:4006800042EA0062587A42EA00221B7A1A4300E0002204AB03EB810343F8102C013100E000210329E1D9002504AB03EB850353F8106C26B131462046FFF754FF00E00220D7
:4006C00010B10135032DEFD9032800F02981002840F0288194F8402094F83F3043EA02231BB2B3F5007F40F01F8194F84B1094F84A3053EA01210DD194F85B2094F85A3001
:400700001B0443EA026394F8591043EA012394F858101943E16194F84420E270531EDBB2012B00F2038101FB02F794F84130A370002B00F0FD805A1E134240F0FB8094F8AD
:4007400046E094F8452042EA0E2EA4F808E01EF00F0F40F0F18094F8480094F8472052EA00220DD194F8570094F85620120442EA006294F8550042EA002094F854200243AB
:4007800094F8435094F8420050EA052000F0D68007EB000C0CEB1E1C6245C0F0D980CCEB0202B2FBF3F3002B00F0D48040F6F572934201D8012500E002254FF6F572934212
:4007C00000D903250233A36126623218626206EB0C00E062032D14D1BEF1000F40F0BC8094F8630094F86220120442EA006294F8610042EA002294F860000243A2629B00FF
:400800000FE0BEF1000F00F0A9803A44A262022D01D15B0005E003EB430203F0010303EB520303F2FF13B1EB532FC0F099804FF0FF332361E36080236371032D5AD194F83E
:40084000652094F8643043EA02231BB2012B51D1711C2046FFF76CFE00284BD10023637194F8332294F8323243EA02231BB2354A93423FD194F8372094F836301B0443EA63
:40088000026394F8352043EA022394F8342013432D4A93422ED194F81B2294F81A321B0443EA026394F8192243EA022394F818221343264A93421DD194F81F2294F81E32BC
:4008C0001B0443EA026394F81D2243EA022394F81C221343236194F8232294F822321B0443EA026394F8212243EA022394F820221343E3602570124A938801339BB29380FC
:40090000E380002060612CE00B202AE00C2028E0002026E00A2024E0032022E00A2020E001201EE00D201CE00D201AE00D2018E00D2016E00D2014E00D2012E00D2010E047
:4009400084C1FF1F55AAFFFF52526141727241610D2006E00D2004E00D2002E00D2000E00D2005B0F0BD00BF10B584B001900091144604A840F8041DFFF786FD002816DBB1
:400980000E4B53F820300BB100221A70019B0BB100221A70019B094A42F820304BB1012C09D10022694601A8FFF724FE04E00B2002E0002000E0002004B010BD84C1FF1FD4
:4009C0002DE9F04F89B00590012900F2DF820C46154605A8FFF758FD0028C0F2D982B24B53F82060002E00F0D58200233370C7B23846FFF7D1FC10F0010F40F0CD8210F031
:400A0000040F40F0CB8206AA01213846FFF71CFD002840F0C582069A7F2A40F2C38214B14FF0000A01E04FF03F0ACAEB020206926B1E1D4200D000257DB94FF4FA61B2FB42
:400A4000F1F1002300E00133984830F813008142F9D3964901EB43031D8BB5F5007F00D36D0A05B90125802D00D98025B2FBF5F340F6F5718B4202D84FF0010901E04FF037
:400A800002094FF6F5718B4201D94FF00309B9F1030F0CD103F182084FEA880808F1FF384FEA5828002304932023029312E0B9F1010F05D103EB430301335B08033301E0CF
:400AC00002335B0003F2FF134FEA53282023049301230293029B5344009308EB030B049B9B4405EB0B03CAEB03039A42C0F05C8207AA03213846FFF7A7FC20B9079B13B184
:400B0000B3F5004F01D901230793079B0BEB0302013A5B421340CBEB03030793B9F1030F06D1029A1A440292009A1A44009200E09844069A029BD31AC8EB030304995B1AAC
:400B4000B3FBF5FBB9F1020F04D140F6F5739B4540F22C82B9F1030F04D14FF6F5739B4540F22682B9F1030F0BD0B9F1010F02D1B2F5803F08D3B2F5803F08D20423019391
:400B800007E00C23019304E00123019301E006230193002C4CD106F134044FF4007200212046FFF769FC012386F8F33186F8F431002286F8F5219DF8041086F8F611FE21D6
:400BC00086F8F71106990AEB010043F6C16EB0FBFEF007904FEA900E4EF03F0E86F8F8E186F8F9013F2086F8FA0186F8FB2186F8FC2186F8FD2186F8FE11C1F3072086F882
:400C0000FF01C1F3074086F80002090E86F80112552186F83212AA2186F8331221463846FFF7DAFB002840F0C581F823039301E0F023039306F134031C4601934FF4007269
:400C400000211846FFF718FC0B2219492046FFF709FC002386F83F30022386F8403086F84150029B86F84230C3F3072386F84330012386F84430B9F1030F01D1002301E0C3
:400C80004FF40073DAB286F845201B1286F84630069BB3F5803F0DD286F84730C3F3072386F8483013E000BF84C1FF1FC03500001036000086F85430C3F3072286F8552018
:400CC000C3F3074286F856201B0E86F857309DF80C3086F849303F2386F84C30002386F84D30FF2286F84E2086F84F3086F850A086F8513086F8523086F85330B34B079381
:400D0000B9F1030F38D1002386F8773086F87830212286F87920462286F87A2086F85880C8F3072286F85920C8F3074286F85A204FEA186286F85B20022286F8602086F82D
:400D4000613086F8623086F86330012286F8642086F86530062286F8662086F86730802386F87430292386F876301322984906F17B00FFF777FB1CE0002386F85B3086F87D
:400D80005C30212386F85D30462386F85E3086F84A80C8F3072386F84B30802386F85830292386F85A3013228A4906F15F00FFF759FB552386F83232AA2386F833320123EA
:400DC000524601993846FFF707FB002840F0F480B9F1030F06D101230AF1060201993846FFF7FAFA0024CDF808A069E04FF4007200210198FFF740FB039BB9F1030F16D009
:400E0000B9F1010F01D1744A01E06FF0FF021343079386F83430C3F3072286F83520C3F3074286F836201B0E86F837301EE0039B63F0FF03079386F834301A0E86F835205A
:400E400086F8362086F83720FF2386F8383086F8393086F83A3086F83B3086F83C3086F83D3086F83E300F2386F83F30009A02F1010A012301993846FFF7AEFA002840F05F
:400E80009D804FF4007200210198FFF7F5FA01230793CDF800A00FE0009A02F1010A012301993846FFF798FA002840F08980079B01330793CDF800A0079B9845ECD80134A5
:400EC000002C93D0DDF808A0B9F1030F01D12C4600E0049C009A551C012301993846FFF77BFA00286ED10095013CF3D1B9F1030F43D1522386F8343086F83530612386F8AB
:400F00003630412286F83720722186F8181286F8191286F81A2286F81B320BF1FF3386F81C32C3F3072386F81D320BF1FF33C3F3074286F81E221B0E86F81F32022386F87D
:400F40002032002386F8213286F8223286F82332552386F83232AA2386F8333201230AEB0302019C21463846FFF736FA01230AF1070221463846FFF72FFA00221146384693
:400F8000FFF762FA003018BF01201CE013201AE00B2018E00C2016E0032014E00A2012E0012010E001200EE00E200CE00E200AE00E2008E0012006E0012004E0012002E09F
:400FC000012000E0012009B0BDE8F08F000021461C3600003036000000FFFF00FEE700BFF0B40022174611E050F82760F3B226F0FF0608E001EB420511F812406D78A55539
:401000000132013BDBB2002BF4D10137162FEBD9F0BC7047064B1B78DBB203F00701054A11701B09013213704422034B1A707047CF0100496E5800407658004008B50A46DB
:40104000002101F08CFE08BD38B50B22244B1A80182202331A70062203F27E231A705222A3F580731A701F4B1B78DBB21E4A13704FF4E1621D4B1A8041F25122023B1A80A8
:40108000002419250CE01A4B1B7803F0010343EA440404F003044FF4F07001F0E9FD013D0DB1032CEFD115B90320FFF797FF114A4FF4807313800723137000230E490B70DB
:4010C00048200231087013700532137002220B4B1A700B4A137843F00103137038BD00BF804000400F010049A14600402242004025420040044000400640004001400040F8
:40110000A243004008B501F01FFE08BD38B572B6344A137843F00403137000240CE0324D630019194A0011462A44084691882858FFF784FF0134E4B20A2CF0D900240BE0B3
:401140002949A3001819420088188022816C406CFFF7D8FF0134E4B2002CF1D023494FF09040FFF73DFF224A137843F0020313701032137843F0020313701E4C237843F068
:4011800040032370A2F58632513A137843F0100313700A2218491948FFF7B4FF0A2218491848FFF7AFFF0A2217491848FFF7AAFF0A2217491748FFF7A5FF174A137843F0D4
:4011C00008031370154D61232B70FFF73DFF81232B70FFF71FFF0E2221461148FFF792FF38BD00BFE8460040443600005C00004803500140A043004090020048F051004092
:401200009C02004810510040A802004830510040B4020048505100402243004000480040B043004008B501F063FD03680C2B00D1FEE7FEE708B5094B1A681044084BC31AD3
:40124000802B02DC054B186005E001F051FD0C2303604FF0FF32104608BD00BFD0C0FF1F80C4FF1F08B5104E104D16E029686B68AC68002204E051F8040B43F8040B043249
:40128000A242F8D1E868002203E0002143F8041B04328242F9D11035013E002EE6D101F02DFDFEF7EFFEFEE7010000006038000008B5104A104B1A60104A136843F400739E
:4012C000136000230AE0032B03D80D4A52F8231000E00C490C4A42F8231001332F2BF2D90A4B1A780A4B1A70074A0A4B1A60FFF70DFF08BD0004FA050CED00E014ED00E0D6
:40130000000000002512000000C0FF1FBC760040C0C0FF1F08ED00E001BE704710B5044605E0084B186801F0A3FCA4F50044B4F5004FF6D8034B586800FB04F001F098FCC1
:4013400010BD00BFD4C0FF1F08B5034B1B7A00FB03F001F08DFC08BDD4C0FF1F70B504460E46074B1D681F2802D90020FFF7D4FF04F01F04103455F8240045F8246070BD51
:4013800008ED00E038B504460D46072902D90020FFF7C2FF1F2C02D90020FFF7BDFF04F01F0000F1604000F564406D01EDB2057038BD00BF134B1B78DBB20360124A1278BA
:4013C00043EA02230360114A127843EA024303600F4A127843EA026303600E4B1B78DBB243600D4A127843EA022343600B4A127843EA024343600A4A127843EA02634360AD
:40140000704700BF0301004904010049EC46004002010049010100490001004905010049060100490222014B1A60704700E100E00122014B1A60704700E100E008B501F038
:401440001FFC0C4A137843F0200313700332137843F010031370013A137843F01003137001F012FC00F00CFAFFF7DCFFFFF7E0FF08BD00BF986500400222014B1A60704782
:4014800080E100E00122014B1A60704780E100E010B5FFF7F1FF064B1C78064A137803F009031C4300231370FFF7BCFF204610BD6B6500409CC1FF1F10B5FFF7E3FF064B3E
:4014C0001B78064A147804F040041C4300231370FFF7AEFF204610BD6A650040A4C2FF1F10B504462B4B1A7802F0FF0312B1013BDBB200E0FE23284A1278D2B29342F1D029
:40150000FFF7BAFF254B1978254A137803F009030B4313701F4B1A78D2B21F4B1B78DBB29A4207D11E4B1B7813F0040F02D01D4B1C702CE0184A13780133DBB213701378D3
:40154000DBB2FF2B02D10022134B1A70124B1A78D2B2104B1B78DBB29A420ED10D4A13780133DBB213701378DBB2FF2B02D10022084B1A7001220C4B1A70074B1B78DBB27E
:401580000A4AD4540A4A137843F004031370FFF749FF10BDA5C2FF1FA3C2FF1F6B6500409CC1FF1F486500409FC2FF1FA0C1FF1F8B65004010B5FFF765FF134B1A78D2B2C7
:4015C000124B1B78DBB29A4214D0114B1B7813F0FF0F0CD10C4A13780133DBB213701378DBB2FF2B06D10022074B1A7002E00022074B1A70044B1B78DBB2064AD45CE4B230
:40160000FFF716FF204610BDA2C2FF1FA0C2FF1FA1C2FF1FA8C2FF1F08B501E0094B1B78094B1B7813F0200FF8D1FFF72BFF0023064A1370064A1370064A1370FFF7F8FE52
:4016400008BD00BF586500406A650040A1C2FF1FA2C2FF1FA0C2FF1F08B501E00A4B1B780A4B1B7813F0200FF8D101F009FB084B1A7842F001021A701A7802F0FE021A7047
:4016800001F002FB08BD00BF586500406A6500409865004010B50F22174B1A70174C0223236007210120FFF76DFE15490120FFF755FE0123236007210020FFF763FE114970
:4016C0000020FFF74BFEFFF7C7FF00240E4B1C700E4B1C700E4B1C700E4B1C700E4B1C700E4B1C70FFF7D4FEFFF7E6FE0C4B1C702022013B1A7010BD8865004080E100E085
:4017000041170000E1170000A1C2FF1FA2C2FF1FA0C2FF1F9FC2FF1FA5C2FF1FA3C2FF1F8B65004008B5054B1B7823B9FFF7B2FF0122024B1A70FFF781FE08BD8AC1FF1F5F
:4017400028E01F4B19781F4A137803F009030B431370137813F0040F24D01B4B1B7813F0FF0F0CD1194A13780133DBB213701378DBB2FF2B06D10022144B1A7002E00022CC
:40178000114B1A70114B1B78DBB2114AD35CDBB2104A13700D4B1A78D2B20F4B1B78DBB29A42CED1094B1A78D2B20B4B1B78DBB29A4204D1094A137803F0FB0313707047D6
:4017C0006B6500409CC1FF1F9FC2FF1FA5C2FF1FA0C1FF1F48650040A3C2FF1F8B650040204B1A7820490B7803F0400313430B7032E01E4B1A78D2B21D490B780133DBB210
:401800000B700B78DBB2FF2B02D10021184B1970174B1978C9B2174B1B78DBB299420ED114490B780133DBB20B700B78DBB2FF2B02D100210F4B197001210F4B19700C4BE0
:401840001B78DBB20D49CA54064B1A7806490B7803F0400313430B70034B1B7813F0200FC7D170476A650040A4C2FF1F58650040A0C2FF1FA2C2FF1FA1C2FF1FA8C2FF1F1B
:40188000054A137843F0010313701032137843F001031370704700BFA2430040044A137803F0FB03800000F0040018431070704710510040F8B501F0E3F90646404A137826
:4018C00043F0010313701032137843F00103137001273C4B1F700225943B1D7002F5E2521B32137803F07F0313700020FFF72CFD354C237803F0F9032370344A137803F012
:40190000DF03137023783B4323703846FFF71CFD2820FFF719FD2E4B1A7802F07F021A701A7802F0BF021A7023782B4323702846FFF70AFD237843F0040323700023254ADD
:40194000137001321370304601F09EF907211720FFF718FD20491720FFF700FD07211820FFF710FD1D491820FFF7F8FC07211520FFF708FD1A491520FFF7F0FC07212846E0
:40198000FFF700FD17492846FFF7E8FC07210320FFF7F8FC14490320FFF7E0FC07210420FFF7F0FC11490420FFF7D8FC07210C20FFF7E8FC0E490C20FFF7D0FCF8BD00BFA8
:4019C000A54300409D6000409443004012600040F85100408460004009230000F1200000052300006522000095220000C92200001123000008B5214B18700023204A137089
:401A0000204A1370204A1370204A1370204A1370204A1370204A1370204B4FF400021A604FF080721A604FF400121A6004221A6008221A6010221A6011B1012906D00BE0D7
:401A4000174A137803F0FE0313700AE0144A137843F00103137004E0114A137843F00103137003220F4B1A708022203B1A70012001F0FEF804220C4B1A7008BD53C4FF1F59
:401A800052C4FF1FC4C3FF1FC5C3FF1FC6C3FF1F56C4FF1FC7C3FF1FC3C3FF1F00E100E009600040286000401260004038B504460D46064B1B7823B9FFF7FCFE0122034BED
:401AC0001A7029462046FFF795FF38BD8BC1FF1F00230A4A13700A4A13700A4A13700A4A13700A4A13700A4A13700A4A13700322094B1A708022203B1A70704752C4FF1F25
:401B0000C4C3FF1FC5C3FF1FC6C3FF1F56C4FF1FC7C3FF1FC3C3FF1F28600040014B1878704700BFC5C3FF1F431EDBB2072B3CD8F0B4074600EB4004A3001C4C2344DB8846
:401B40009BB2C3F500739A4208D900EB400293002344DA8892B2C2F5007292B200EB4004A300124C2344DB7843EA1223104D04012E192B55D3B2737039B909E0CE5C3D01D6
:401B80000C4C665501339BB200E000239A42F5D8420002449300054A134400225A705A79D2B20001044B1A54F0BC7047E4C3FF1FFC5F004078600040FE5F0040431EDBB2BD
:401BC000072B0BD8420002449300054A134400225A705A79D2B20001024B1A54704700BFE4C3FF1FFE5F004010B4FF2400230EE0094AD25C02EB42029100084A11448A7A52
:401C0000D2B2824201D11C4602230133DBB2012BEED9204610BC7047B0C3FF1FE4C3FF1F10B5204C2079FFF7DFFF237813F0800F0ED06378DBB2212B2FD11B4B07221A808A
:401C4000C0EBC000194A1044586000F0BFFA10BD144B5B78DBB2202B02D0222B10D01EE0114A07231380C0EBC00310490B4453600F4A135C43F00103135400F0CFFA10BD40
:401C8000084B9B780B4A22F81030094A135C43F00203135400F058F910BD002010BD002010BD00BF00600040D4C3FF1FE4C0FF1FB8C3FF1FBCC3FF1F10B500241F4B1C70DB
:401CC0001F4B1C705C700AE01E4B185DC0B2431EDBB2072B01D8FFF771FF0134E4B2012CF2D9194B1B7813F0FF0F1AD0154B1B7813F0FF0F17D0154B1B7813F0FF0F14D001
:401D0000114B1B78DBB2082B11D80E4B1B78DBB2082B0ED80D4B1B78DBB2082B0BD8002010BD012010BD012010BD012010BD012010BD012010BD012010BD00BF8CC1FF1F40
:401D4000B8C3FF1FACC3FF1FA8C3FF1FB0C3FF1F70B506460D460F4B1B780F4AD45CE4B204EB440293000D4A13441B899BB28B4209D204EB44029300084A13441D89ADB2CE
:401D80000020FFF7C9FA2A4631462046FFF7CCFE70BD00BF8CC1FF1FA8C3FF1FE4C3FF1FC37803F0030390F9020000280FDA032B06D002F001030B48C15442F001020EE043
:401DC000C2F380030848C15442F0040207E0032B05D0C2F340030548C15442F002021046704700BFA8C3FF1FB0C3FF1FACC3FF1F1D4B19781D4A13889BB20B449BB21380AA
:401E000000220FE01A494B681B78DBB2194883544B6801334B600132D2B20B889BB2013B9BB20B80124B1B889BB20BB1072AE9D90D4B1B78DBB2082B00D05AB10E490B788A
:401E400083F080030B700F210C4B197002210C4B197004E0022309490B7009490B70094B1A70014B1A707047C3C3FF1F50C4FF1FD4C3FF1F00600040C8C3FF1FC2C3FF1F59
:401E800052C4FF1FE0C3FF1F0222074B1A708022064B1A700F22064B1A700023054A1370054A13700120704752C4FF1FC8C3FF1FC2C3FF1FC3C3FF1FE0C3FF1F08B5FFF76D
:401EC00097FF08BD10B4194B197801F00F010239C9B2174A13889BB20B449BB21380002011E0144A5468144B1B5CDBB223705368013353600130C0B20139C9B213889BB29C
:401F0000013B9BB213800B4B1B889BB20BB10029E7D10A4B19700A4A137883F0800313700B22084B1A7010BC704700BF2960004050C4FF1FD4C3FF1F00600040E0C3FF1F0F
:401F4000C8C3FF1FC2C3FF1F0623064A1370064A13708022054B1A700022054B1A700120704700BF52C4FF1FC2C3FF1FC8C3FF1FE0C3FF1F064B9B6843B1054B9A681070DC
:401F80009A6804490988518000229A60704700BFD4C3FF1F50C4FF1F08B5134B1A78D2B21A701B78DBB213F0800F02D00F4A137008BD0220FFF7DEFF0D4B1B7803F06003E1
:401FC000202B05D0402B06D043B900F093FC06E000F05EFE03E000F037FE00E0002010B90322024B1A7008BD28600040C2C3FF1F0060004008B5094B1978094A13889BB259
:402000000B449BB213800022064B1A700120FFF7B1FF0322044B1A7008BD00BFC3C3FF1F50C4FF1F52C4FF1FC2C3FF1F08B50B4B1B78DBB2042B06D0062B07D0022B0BD135
:40204000FFF7D8FF08BDFFF73DFF08BD0320FFF791FF0322024B1A7008BD00BF52C4FF1FC2C3FF1F08B50022044B1A700120FFF781FF0322024B1A7008BD00BF52C4FF1FD4
:40208000C2C3FF1F08B50B4B1B7813F0FF0F07D0084A137843F0800307490B70002313700022064B1A700120FFF764FF0322044B1A7008BD56C4FF1F0860004052C4FF1F9D
:4020C000C2C3FF1F08B5094B1B78DBB2042B06D0062B07D0022B07D1FFF7F0FE08BDFFF7C1FF08BDFFF7CEFF08BD00BF52C4FF1F08B5284B1B78DBB213F0100F48D013F0CE
:40210000800F0CD003F00F03012B16D1FFF744FF214B1B7813F0800F11D1012312E013F0400F03D0FFF7CEFF01230BE013F0200F07D0FFF77BFF012304E0002302E00023BA
:4021400000E0002323B3134B1B7813F0800F1FD1124B1B78124A12781343124A13701278D2B2934214D10C4B1B78DBB2094A127812F0800F07D1084B1B78DBB2054A13703E
:40218000137803F00F03044A1278D2B29342EAD108BD00BF28600040C2C3FF1FC8C3FF1FE0C3FF1F296000400022064B1A80064B9B682BB1044A916800230B709268538092
:4021C000704700BF50C4FF1FD4C3FF1F08B50F4B1B889BB213B9FFF757FE15E002220C4B1A7000220B4B1A70FFF7DEFF0A4AD179937943EA0123054A128892B2934201D2C5
:40220000024A1380FFF7F4FD012008BDD4C3FF1F52C4FF1FC8C3FF1F0060004008B504220B4B1A7080220B4B1A70FFF7BDFF0A4AD179937943EA0123084A128892B29342C9
:4022400001D2064A13800B22054B1A70012008BD52C4FF1FC8C3FF1F00600040D4C3FF1FC2C3FF1F0122094B1A700F3B9B7C084B1B7B03F00303934204D0054AD37B83F0E9
:402280008003D3730122024B5A7370470B600040E4C3FF1F02220A4B1A700F3B93F82230084B1B7E03F00303012B04D0054AD37E83F08003D3760122024B5A76704700BF4D
:4022C0000B600040E4C3FF1F04220C4B1A700F3B93F832300A4B93F8243003F00303012B06D0074A92F8273083F0800382F827300122034B83F82520704700BF0B600040B6
:40230000E4C3FF1F704700BF08B5FFF7E1FB08BD08B500F0A5FC08BD70B588B0054603AC174E0FCE0FC43368237035B322232B7003236B7001A8FFF73DF8002402231AE081
:4023400008AA224412F81C2C08A901EB121111F8141CE954581C00212954981C02F00F0208AE324412F8142C2A54DA1CA9540134E4B20433DBB2212BE2D908B070BD00BFD3
:402380009436000010B401233EE019461A010C242148845403EB4300820020480244527912F0FF0F13D003EB430082001B480244127912F0800F04D01801194A0244947031
:4023C0000AE01801164A02440820907004E01801134A0244802090704800084482000F480244D488E4B208010B4901448C71D088C0F30720C871D088C0B20871D288C2F3CB
:4024000007224A710133DBB2082BBED9FF22054B1A7010BC704700BF70600040E4C3FF1FFC5F00400A600040074B1A78074B03EBC2035B681A7C824204D9C0001030184497
:40244000406870470020704753C4FF1FA8360000F8B5404B1B7813F0FF0F79D03D4B18780138C0B2FFF7E0FF047AC2683A4B1878C0B200236AE01178884264D13749095C4D
:40248000C9B25578A9425ED1917801F07F01D67806F00306DFF8C8E04D000D44AF000EEB07054FF0000C85F803C092F802C085F804C092F803C00EF807C097882F8192F996
:4024C0000250002D0DDA012E01D1072700E00D274E000E44B500224E35446F7101266E700CE0012E01D1052700E009274E000E44B5001B4E35446F7100266E70DFF868E0AD
:402500000F010EEB07060125B57001FA05F529448D00134929440D89C5F307250EF807500D89EDB27570CE88F6B20E4D3D44AE71CE88C6F30726EE71CE88F6B22E71C9880F
:40254000C1F30721697108320133DBB2A34292D3F8BD00BFC5C3FF1FC6C3FF1FD0C3FF1FE4C3FF1F70600040FC5F0040034B1A78034B03EBC2035868704700BF53C4FF1F32
:40258000A836000008B5084B18780138C0B2FFF74BFF30B142681279023200EBC203586808BD002008BD00BFC5C3FF1F2DE9F047002310E0724D5900CA189600AC19002212
:4025C000AA55A270E2702281A272627034462C4462710133DBB2082BECD940B90AE000226849CA546849CA540133DBB200E00023012BF4D9654B1B7813F0FF0F00F0BD8098
:40260000624B18780138C0B2FFF70EFF80464368DB7913F0400F05D05D4A137843F00103137004E05A4A137803F0FE03137098F808704FF0000A01266FE0D8F80C50002436
:4026400067E0AB7803F07F039E425FD1314606EB460083004A4803441B899BB2A888834206D206EB460E4FEA8E03454A134418812B784448C35CDBB26878834246D195F8F1
:4026800002C0DFF8FCE04B000B4498000EEB000383F804C0EB780EF80030EB7803F0030395F90200002813DA012B02D14FF0070901E04FF00D09DFF8C8E04B0003EB010C55
:4026C0004FEA8C00704480F805900121417012E0012B02D14FF0050901E04FF00909DFF8A0E04B0003EB010C4FEA8C00704480F8059000214170AB790A2B01D0022B05D1EF
:40270000524631462846FFF74BFB824608350134E4B2BC4295D30136F6B2082E8DD9D8F80C0000220CE0837803F07F0310F8084B03EB43039900124B19448C720132D2B23E
:40274000BA42F0D3FFF71EFF124B1860002301210FE00B4D4A00501884002C44E380228992B213449BB203F0010213449BB20131C9B20829EDD9FFF705FEBDE8F08700BF78
:40278000E4C3FF1FD0C3FF1FC0C3FF1FC5C3FF1FC7C3FF1FCCC3FF1F08B5154B1B7903F07F035A1ED2B2072A20D8590019448A0010490A44917841F0010191700021D17036
:4027C000517841F002015170127912F0800F05D01B01094A1A448D23937004E01B01064A1A4489239370FFF7AFFB08BD002008BD00600040E4C3FF1FFC5F0040274B1B79FD
:4028000003F07F035A1ED2B2072A44D810B5590019448A0022490A44917801F0FE0191700021D1701F4C1801215C01F07F012154517801F0FD015170127912F0800F13D061
:4028400003EB43018A0016490A445278D2B2012A04D1224602440C23937019E01B01114A1A440D23937013E003EB43018A000C490A445278D2B2012A05D11B01094A1A4452
:402880000823937004E01B01064A1A4409239370FFF75AFB10BD0020704700BF00600040E4C3FF1FFC5F004010B50E4B1C79E4B20D4B18780138C0B2FFF7B6FD43681B799B
:4028C0009C4201D9022C0AD8084A135DDBB208490B55044B9B78DBB21355012010BD002010BD00BF00600040C5C3FF1FD0C3FF1FC0C3FF1F10B59C4B1B78DBB200219B4AB5
:40290000118013F0800F00F0AD80974A5278D2B20A2A00F27481DFE812F06900720172017201720172010B007201920072019A008D4BDB78DBB2012B09D1FFF717FE42680C
:402940008A4B5A6012221A80FFF740FC10BD864BDB78DBB2022B13D1834B9878FFF764FD002800F04E814268804B5A605A68D1785A68927842EA01221A80FFF727FC10BD48
:40298000794BDB78DBB2032B05D02CE00A7811440133DBB201E000237549734A9278D2B2934203D20A7812F0FF0FEFD16E4B9B7813F0FF0F0BD06C4B9B78DBB26D4A127C6F
:4029C000934204D16C4C2046FFF7A6FC21460B7813F0FF0F00F017810B78644A13805160FFF7F4FB10BD00F053F910BD13F0030317D0022B40F009815C490B805A4B1B7984
:402A000003F07F0303EB43039A005C4B1A449278D2B25B4B1A7000225A704B60FFF7D6FB10BD524902230B80564B1A78D2B2544B1A7000225A704B60FFF7C8FB10BD4B4B87
:402A400001221A80504A5A60FFF7C0FB10BD474A01231380444B1B794C490B445360FFF7B5FB10BD404A5278013A0A2A00F2CF80DFE812F04C00CD009800CD000B00CD002F
:402A8000CD00CD001300CD003000374B9B78DBB23F4A1370FFF758FA10BD334B9B7803F0FF041BB1601EC0B2FFF7BEFC04B110B9002C40F0AE80344B1B78DBB29C4206D0DB
:402AC000314B1C700120334B1870FFF76FFDFFF73BFA10BDFFF7E8FE002800F09C80224A1379DBB21279D2B22B490A702B4AD25CD2B22649CB5CDBB29A4204D00122254B2E
:402B00001A70FFF7A5FCFFF71FFA10BD03F00303012B17D04BB1022B7FD1134B9B7813F0FF0F7CD1FFF76AFE10BD0F4B9B78DBB2012B76D1134A137803F0FD031370FFF758
:402B400003FA10BD084B1B79DBB2012B6BD8064B98781B79DBB21249CA5C22EA0002CA54FFF7F2F910BD00BF00600040D4C3FF1F10370000F437000058C4FF1FE4C3FF1F46
:402B800090C1FF1FC7C3FF1FC5C3FF1FD0C3FF1F56C4FF1FC4C3FF1FC6C3FF1FC0C3FF1F54C4FF1F03F00303012B17D04BB1022B3BD1224B9B7813F0FF0F38D1FFF7ECFD92
:402BC00010BD1E4B9B78DBB2012B32D11C4A137843F002031370FFF7B7F910BD174B1B79DBB2012B27D8154B98781B79DBB21549CA5C22EA0002CA54FFF7A6F910BD002040
:402C000010BD002010BD002010BD002010BD002010BD002010BD002010BD002010BD002010BD002010BD002010BD002010BD002010BD002010BD002010BD00BF0060004072
:402C4000C7C3FF1F54C4FF1F044B1B7813F0800F01D0024B5B780020704700BF00600040024B1878C0F38010704700BF8F4500400230800803D000BF01380046FCD17047E2
:402C8000EFF3108072B6704780F31088704700BF08B5144B1B7803F00303012B02D0022B04D00FE00F4B1B79DBB20CE00D4B1B7903F07F0303EB43039A000B4B1A44937A55
:402CC000DBB200E00023022B07D8084A1268D35C022B04D1FEF7A4FF08BD002008BD002008BD00BF00600040E4C3FF1FCCC3FF1F014B1868704700BF60C1FF1F0E4B70B544
:402D00001E460E4C0025E41AA410A54204D056F8253098470135F8E700F090FD084B094C1E46E41AA4100025A54204D056F8253098470135F8E770BD4838000048380000CD
:402D4000483800005038000010B5431E0A44914204D011F8014B03F8014FF8E710BD03460244934202D003F8011BFAE7704700000EB400B54FF402719CB0ADF814106FF05E
:402D80000041049107914FF6FF711DAB02900690084853F8042BADF81610006802A9019300F064F8029B00221A701CB05DF804EB03B0704760C1FF1F2DE9F0478E6882466B
:402DC0009E420C46914698463ED88A8912F4906F3AD02568096902236F1A656905EB450595FBF3F57B1C43449D4238BF1D4653050FD5294600F040FB064698B13A462169BB
:402E0000FFF7A2FFA38923F4906343F08003A38113E02A4600F08EFB064670B92169504600F0DEFA0C23CAF80030A3894FF0FF3043F04003A381BDE8F08726613E442660B2
:402E400046466561ED1BA560464528BF464649463246206800F0A8FAA36800209B1BA36023681E442660BDE8F08700002DE9F04F9DB003938B8980461C060D4616460DD59C
:402E80000B695BB9402100F0F7FA2860286118B90C23C8F80030CDE040236B610023099320238DF82930DFF89CB130238DF82A3037463C4614F8013B1BB9B7EB060910D089
:402EC00003E0252BF9D02746F3E74B46324629464046FFF771FF013000F0A780099B4B4409933B78002B00F0A08000234FF0FF3204930793059206938DF853301A93012656
:402F0000052221784E4800F041FA671C049B38B14B4A3C46801A06FA00F018430490EFE7D90644BF20228DF853201A0744BF2B228DF8532022782A2A03D0079A00210A206D
:402F40000BE0039A111D12680391002A10DA524243F00200079204900BE027463B780134303B092B03D800FB02320121F5E701B107923B782E2B1ED17B782A2B0AD1039B95
:402F800002371A1D1B680392002BB8BF4FF0FF33059310E0002319460593781C0A2407463A780130303A092A03D804FB01210123F5E703B1059103223978224800F0E6F9F0
:402FC00040B14023CBEB000003FA00F0049B013718430490397806221B487E1C8DF8281000F0D4F988B1194B33B9039B073323F007030833039314E003AB00932A46144B71
:4030000004A94046AFF3008007E003AB00932A460F4B04A9404600F093F8B0F1FF3F824603D0099B5344099342E7AB895B0601D4099801E04FF0FF301DB0BDE8F08F00BF17
:40304000083800000E3800001238000000000000B92D00002DE9F04791461F460A698B6806469342B8BF1346C9F8003091F843200C46DDF8208012B10133C9F800302368A3
:40308000990642BFD9F800300233C9F80030256815F0060510D104F1190A07E00123524639463046C04701301AD00135E368D9F800209B1A9D42F1DB94F84330226800336B
:4030C00018BF012392060FD5E118302081F843005A1C94F845102244023382F8431003E04FF0FF30BDE8F08704F1430239463046C0470130F4D02268D9F80050E36802F015
:403100000602042A08BF5D1B2269A3680CBF25EAE57500259342C4BF9B1AED184FF000091A344D4509D00123224639463046C0470130D5D009F10109F3E70020BDE8F087A0
:403140002DE9F04317460A7E85B06E2A984606460C460C9B01F1430E00F0AE8011D8632A22D009D8002A00F0BB80582A40F0CA8081F84520834955E0642A1ED0692A1CD05C
:40318000C0E0732A00F0B08009D86F2A2ED0702A40F0B8800A6842F020020A603EE0752A24D0782A3AD0ADE01A6801F14205111D1960136884F84230A8E021681A6811F0BF
:4031C000800F02D0111D196008E011F0400F02F10401196002D0B2F9003000E01368002B3CDA2D225B4284F8432037E021681A6811F0800F02D0111D196007E011F0400FA8
:4032000002F10401196001D0138800E01368227E5C496F2A14BF0A2208221BE078225A4984F845202268186812F0800F00F104051D6003D1550601D5038800E00368D00772
:4032400044BF42F0200222601BB9226822F0200222601022002084F8430001E049490A226568002DA56008DB206820F0040020602BB9002D7DD175460CE0002B79D075467E
:40328000B3FBF2F002FB1033CB5C05F8013D03460028F5D1082A0BD12368DA0708D5236962689A42DEBF302305F8013C05F1FF35C5EB0E0323612EE008681A6810F0800FF4
:4032C000496903D0101D1860136808E010F0400F02F104001860136801D0198000E0196000232361754616E01A68111D1960156800216268284600F049F808B1401B6060E9
:40330000636804E004F1420584F8422001232361002384F84330CDF800803B4603AA21463046FFF797FE013002D14FF0FF3026E023692A4639463046C0470130F5D023683E
:403340009B0710D5002504F1190907E001234A4639463046C0470130E7D00135E368039A9B1A9D42F2DBE068039B9842B8BF184605E00B7804F1420584F842308AE705B03F
:40338000BDE8F083193800002A38000010B5C9B202449042034605D01C7801308C42F8D1184610BD002010BD884210B501EB020301D8421E0BE09842FBD28118D21AD34273
:4033C00004D013F8014D01F8014DF8E710BD994204D011F8014B02F8014FF8E710BD000038B50546002944D051F8043C0C1F002BB8BFE41800F0D4F81E4A1368114613B92A
:403400006360146030E0A3420DD92268A018834201BF18685B681218226063600C6023E0A24203D813465A68002AF9D118681918A1420BD12168014458188242196013D1F5
:4034400010685268014419605A600DE002D90C232B6009E021686018824201BF106852680918216062605C602846BDE8384000F098B838BD98C1FF1F70B5CD1C25F00305FE
:4034800008350C2D38BF0C25002D064601DBA94202D90C23336046E000F082F8234B1C681A462146A1B10B685B1B0ED40B2B03D90B60CC18CD501EE08C420BBF63684B6899
:4034C0001360636018BF0C4615E00C464968E9E7174C23681BB9304600F052F820602946304600F04DF8431C18D0C41C24F00304A0420DD12560304600F053F804F10B0061
:40350000231D20F00700C31A0ED05A42E25070BD211A304600F034F80130EBD10C233360304600F03EF8002070BD00BF98C1FF1F94C1FF1FF8B5074615460E4621B9114696
:40354000BDE8F840FFF798BF1AB9FFF749FF2846F8BD00F027F885420ED929463846FFF78BFF044650B131462A46FFF7EDFB31463846FFF735FF01E03046F8BD2046F8BD6D
:4035800038B5064C0023054608462360FDF752FE431C02D1236803B12B6038BD7CC4FF1F7047704751F8040C0028BEBF091851F8043CC0180438704700000000257820005C
:4035C000000400020001800040002000100008000400020000000000008000400020001000080040002000100008000400020000222A2B2C3A3B3C3D3E3F5B5D7C7F00008F
:40360000222A2B2C2E3A3B3C3D3E3F5B5D7C7F00EBFE904D53444F53352E30004E4F204E414D45202020204641543332202020004E4F204E414D4520202020464154202092
:4036400020202000005100401000205100401000405100401000605100401000C0510040100000000140001000140140000480180140800300400140000A004C0140000225
:403680000050014020000000001801401002004880000000303132333435363738394142434445460000000001000000B036000001000000F4370000000000000000000071
:4036C00001000000C836000001000000B037000003000000F43600000000000000000000000000000000000000000000F0360000020A000000008103080002000100820271
:4037000040000A000100030240000A0002030000040309042C0343007900700072006500730073002000530065006D00690063006F006E0064007500630074006F0072003F
:40374000100355005300420055004100520054003803430044004300200043006F006D006D0075006E00690063006100740069006F006E00200049006E0074006500720073
:403780006600610063006500260343004400430020004400610074006100200049006E00740065007200660061006300650000000902430002010180320904000001020226
:4037C0000103052400100104240202052406000105240100010705810308000A09040100020A0000040705820240000007050302400000001201000202000008B40432F228
:403800000100010280014300232D302B2000686C4C00656667454647003031323334353637383941424344454600303132333435363738396162636465660000F8B500BF61
:40384000F8BC08BC9E4670474D000000B1120000F8B500BFF8BC08BC9E4670472900000070380000C8C0FF1FA000000018030000000000000A0D010080C4FF1F0000E02EEC
:40388000C05D00001800000000366E0100C2010000000800C201000000080000A12000000000020000000000000000000000000000000000000000000000000000000000D5
:4038C000000000000000000006380000000000000000000000000000000000000000000000000000000000000000000000000000000000000000000000000000000000008A
:40390000000000000000000000C1FF1F00000000000000000000000000000000000000000000000000000000000000000000000000000000000000000000000000000000A8
:403940000000000000000000000000000000000000000000000000000000000000000000000000000000000000000000000000000000000000000000000000000000000047
:403980000000000000000000000000000000000000000000000000000000000000000000000000000000000000000000000000000000000000000000000000000000000007
:4039C00000000000000000000000000000000000000000000000000000000000000000000000000000000000000000000000000000000000000000000000000000000000C7
:403A00000000000000000000000000000000000000000000000000000000000000000000000000000000000000000000000000000000000000000000000000000000000086
:020000040001F9
:0200000480007A
:4000000001450040025200400165004002030140020D0140011501400217014027190140351A01403A1B0140074001400941014003420140034301400145014002460140E2
:40004000064701400648014006490140034C0140064D014002500140025101407E0219407C40880FE208E602E208E602E641E601EA020422050406020E290F8017151D94E4
:400080001E4224222544261827282E212F2037293D803E1645A047084D824E084F045620574465016E156F1576028080C0F0C2F0C470CAE0CCE0CEF0D070D230D880EA02C3
:4000C0000C020E0D18091A062405260A28032A0C300F3A025440560458045B045F01828084408513870488118A228C8D8D0E9002920D948D9505973A98429A089B209C8D59
:40010000A00DA280A462A504A614A739A88DB00FB280B470B530B70FB980BA22BE04D409D604D804D904DB04DF010040042105020622072009200D020E191208130817192D
:40014000184019011D261E081F20254026202F20362037083D885E425F246081610463086601670282208E0190209251930699029A229B199C809D01A104A209A304A5208F
:40018000A604A720A914AB01B180C0F1C2F2C476CA40CC60CE50D6F0D89FE640EC0132403301340235803B10CCF0CE1084028710968097109C029D809F01E210E640968018
:4001C0009D809F0196809D809F0186419601A64009080A010E809601A640C20E824096809D80AF01E680EA40601080108D809D80D840E6800804AD08C20850049008A80434
:40020000B004D404EE0110011C0100AF01020000049A00000198000207023898843800C0609800020A2110D85613096484000000049A800080FC0403840200000000000047
:4002400008007F13020F80E0080000A0000051003206100005DECB0F1FFFFFFF2200F008040000000000022C04040404000000010000C00040011011C00100114001400186
:40028000000000000000000000000000000000004000000000000000C00000002400102F0F00000000000000C00000C04000400000000000080000080800080000000000AC
:4002C00000000000000000000000000000000000000000000000000000000000000000000000000000000000000000000000000000000000000000000000000000000000FE
:4003000000000000000000000000000000000000000000000000000000000000000000000000000000000000000000000000000000000000000000000000000000000000BD
:40034000000000000000000000000000000000000000000000000000000000000000000000000000000000000000000000000000000000000000000000000000000000007D
:40038000000000000000000000000000000000000000000000000000000000000000000000000000000000000000000000000000000000000000000000000000000000003D
:0200000490006A
:0400000000004005B7
:0200000490105A
:04000000BC90ACAF55
:0200000490303A
:02000000454E6B
:0200000490402A
:4000000000000000000000000000000000000000000000000000000000000000000000000000000000000000000000000000000000000000000000000000000000000000C0
:400040000000000000000000000000000000000000000000000000000000000000000000000000000000000000000000000000000000000000000000000000000000000080
:0200000490501A
:0C00000000012E16C06900012E2D05B76E
:00000001FF