:400000000040002011000000711A0000711A000008B5044B1A6803F53F5302331A6001F02FFD00BFFA46004010B5054C237833B9044B13B10448AFF300800123237010BD74
:4000400060C1FF1F00000000B8310000084B10B51BB108490848AFF300800848036803B910BD074B002BFBD0BDE81040184700BF0000000064C1FF1FB8310000C8C0FF1F40
:400080000000000010B5ADF5C86D00248E94ADF83C424FF48062214690A803F084F862B601F016FF2146204602F0BEF802F0F4F810B1022002F06EF942F2107001F03CFD7D
:4000C000164C0022214601A800F02EFC00220121204600F055FC0223002290A9104600F043F90328F7D000F09DFF02F0D5F828B102F0D8F810B1022002F04CF9012002F060
:40010000E1F8012801D101F087F9022002F0DAF80128EAD101F0ACF9E7E700BFBC31000008B501F0B3FD01F089FD10F0010FFAD008BD00BF08B5002001F086FF0620FFF7FE
:40014000EFFF012001F080FF08BD00BF08B501F039FE002001F078FF0520FFF7E1FF0020FFF7DEFF012001F06FFF01F0F9FD01F0F7FD08BD08B5FFF7E9FF10F0010000D0A4
:40018000012008BD10B50446FFF7E0FFC0F383000E2809D8DFE800F0460A11181F26080808082D32373C4100012010BDA4F5F814B4F5803F38D2012010BDA4F5F014B4F547
:4001C000003F33D2012010BDA4F5E014B4F5802F2ED2012010BDA4F5C014B4F5002F29D2012010BDA4F58014B4F5801F24D2012010BDB4F5702F21D8012010BDB4F5B81FC4
:400200001ED8012010BDB4F5D81F1BD8012010BDB4F5E81F18D8012010BDB4F5F01F15D8012010BD002010BD002010BD002010BD002010BD002010BD002010BD002010BDBD
:40024000002010BD002010BD002010BD002010BD2DE9F04186B00E461546C0F30748C0F30727C4B2002301930293039304930593FFF780FF40BB01F0A5FD002001F0E4FE3E
:400280000320FFF74DFF01F06BFD4046FFF748FF01F066FD3846FFF743FF01F061FD2046FFF73EFF01F05CFD002406E00020FFF737FF01F055FD30550134AC42F6D3012056
:4002C00001F0C2FE002000E0032006B0BDE8F081531EFF2B30D82DE9F04106460D461446FFF748FF50BB3046FFF74CFF48BBC6F30748C6F30727F6B2FFF71CFF002001F0C0
:40030000A3FE0220FFF70CFF4046FFF709FF3846FFF706FF3046FFF703FF002604E015F8010BFFF7FDFE0136A642F8D3012001F08BFE0020BDE8F081022070470320BDE81E
:40034000F0810420BDE8F08110B9024B1878704701207047CCC0FF1F10B9024B1870704703207047CCC0FF1F70B50D4614461E46FFF7EAFF10F0010F0BD1640272022946D0
:400380002046FFF765FF0328F8D0003018BF012070BD032070BD00BF70B5ADF5027D0E4615461C46FFF7D0FF10F0010F28D16D026400E4B24FF40072002102A802F0F3FE35
:4003C00000230093ADF804304FF4807231462846FFF77EFF0328F7D005F5807506F58076601E10F0FF04EFD10123002202A91046FFF7BAFF0328F7D0201C18BF012000E0D2
:4004000003200DF5027D70BD012903D041B1032905D170474FF480531360002070470420704700BF04E00A7802701A4601310130531E002AF7D1704702E001701A460130B0
:40044000531E002AF9D17047016821B94FF0FF3316E0013200E00A461378202B01D93A2BF7D13A2B0BD110B44C1C0B78303B092B08D8A24209D15BB9013202600AE0002393
:40048000184670474FF0FF3304E04FF0FF3301E04FF0FF33184610BC704700BFF8B5037903B30446066B00F134070123324639464078FFF771FFB8B900232371636AF31A6E
:4004C000E269934212D2E57808E0E3691E440123324639466078FFF75FFF013D012DF4D80020F8BD0020F8BD0120F8BD0020F8BD70B5036B8B4212D004460D46FFF7CEFF8F
:40050000064668B901232A4604F134016078FFF72BFF10B101264FF0FF35256300E00026304670BD10B50446002303714FF0FF330363FFF7DDFF80BB94F8332294F83232B1
:4005400043EA02231BB2194A934228D194F86D2094F86C301B0443EA026394F86B2043EA022394F86A20134323F07F43104A934217D094F8892094F888301B0443EA02634F
:4005800094F8872043EA022394F88620134323F07F43074A934206D110BD032010BD022010BD002010BD012010BD00BF55AAFFFF46415400F0B585B0064617460023036035
:4005C0000846FFF741FF051EC0F27E81CC4B53F82540002C00F07A813460237873B16078FFF7B2FE10F0010F08D1002F00F0708110F0040F40F06E81002092E10023237080
:40060000E8B26070FFF7A8FE10F0010F40F064811FB110F0040F40F0618100212046FFF781FF01281CD000262EE004F134030A0102F5DF7213441A7952B1D87A9A7A12046C
:4006400042EA0062587A42EA00221B7A1A4300E0002204AB03EB810343F8102C013100E000210329E1D9002504AB03EB850353F8106C26B131462046FFF754FF00E0022017
:4006800010B10135032DEFD9032800F02981002840F0288194F8402094F83F3043EA02231BB2B3F5007F40F01F8194F84B1094F84A3053EA01210DD194F85B2094F85A3041
:4006C0001B0443EA026394F8591043EA012394F858101943E16194F84420E270531EDBB2012B00F2038101FB02F794F84130A370002B00F0FD805A1E134240F0FB8094F8EE
:4007000046E094F8452042EA0E2EA4F808E01EF00F0F40F0F18094F8480094F8472052EA00220DD194F8570094F85620120442EA006294F8550042EA002094F854200243EB
:4007400094F8435094F8420050EA052000F0D68007EB000C0CEB1E1C6245C0F0D980CCEB0202B2FBF3F3002B00F0D48040F6F572934201D8012500E002254FF6F572934252
:4007800000D903250233A36126623218626206EB0C00E062032D14D1BEF1000F40F0BC8094F8630094F86220120442EA006294F8610042EA002294F860000243A2629B003F
:4007C0000FE0BEF1000F00F0A9803A44A262022D01D15B0005E003EB430203F0010303EB520303F2FF13B1EB532FC0F099804FF0FF332361E36080236371032D5AD194F87F
:40080000652094F8643043EA02231BB2012B51D1711C2046FFF76CFE00284BD10023637194F8332294F8323243EA02231BB2354A93423FD194F8372094F836301B0443EAA3
:40084000026394F8352043EA022394F8342013432D4A93422ED194F81B2294F81A321B0443EA026394F8192243EA022394F818221343264A93421DD194F81F2294F81E32FC
:400880001B0443EA026394F81D2243EA022394F81C221343236194F8232294F822321B0443EA026394F8212243EA022394F820221343E3602570124A938801339BB293803C
:4008C000E380002060612CE00B202AE00C2028E0002026E00A2024E0032022E00A2020E001201EE00D201CE00D201AE00D2018E00D2016E00D2014E00D2012E00D2010E088
:400900007CC1FF1F55AAFFFF52526141727241610D2006E00D2004E00D2002E00D2000E00D2005B0F0BD00BF10B584B001900091144604A840F8041DFFF786FD002816DBF9
:400940000E4B53F820300BB100221A70019B0BB100221A70019B094A42F820304BB1012C09D10022694601A8FFF724FE04E00B2002E0002000E0002004B010BD7CC1FF1F1C
:400980002DE9F04F89B00590012900F2DF820C46154605A8FFF758FD0028C0F2D982B24B53F82060002E00F0D58200233370C7B23846FFF7D1FC10F0010F40F0CD8210F071
:4009C000040F40F0CB8206AA01213846FFF71CFD002840F0C582069A7F2A40F2C38214B14FF0000A01E04FF03F0ACAEB020206926B1E1D4200D000257DB94FF4FA61B2FB83
:400A0000F1F1002300E00133984830F813008142F9D3964901EB43031D8BB5F5007F00D36D0A05B90125802D00D98025B2FBF5F340F6F5718B4202D84FF0010901E04FF077
:400A400002094FF6F5718B4201D94FF00309B9F1030F0CD103F182084FEA880808F1FF384FEA5828002304932023029312E0B9F1010F05D103EB430301335B08033301E00F
:400A800002335B0003F2FF134FEA53282023049301230293029B5344009308EB030B049B9B4405EB0B03CAEB03039A42C0F05C8207AA03213846FFF7A7FC20B9079B13B1C4
:400AC000B3F5004F01D901230793079B0BEB0302013A5B421340CBEB03030793B9F1030F06D1029A1A440292009A1A44009200E09844069A029BD31AC8EB030304995B1AED
:400B0000B3FBF5FBB9F1020F04D140F6F5739B4540F22C82B9F1030F04D14FF6F5739B4540F22682B9F1030F0BD0B9F1010F02D1B2F5803F08D3B2F5803F08D204230193D1
:400B400007E00C23019304E00123019301E006230193002C4CD106F134044FF4007200212046FFF769FC012386F8F33186F8F431002286F8F5219DF8041086F8F611FE2116
:400B800086F8F71106990AEB010043F6C16EB0FBFEF007904FEA900E4EF03F0E86F8F8E186F8F9013F2086F8FA0186F8FB2186F8FC2186F8FD2186F8FE11C1F3072086F8C2
:400BC000FF01C1F3074086F80002090E86F80112552186F83212AA2186F8331221463846FFF7DAFB002840F0C581F823039301E0F023039306F134031C4601934FF40072AA
:400C000000211846FFF718FC0B2219492046FFF709FC002386F83F30022386F8403086F84150029B86F84230C3F3072386F84330012386F84430B9F1030F01D1002301E003
:400C40004FF40073DAB286F845201B1286F84630069BB3F5803F0DD286F84730C3F3072386F8483013E000BF7CC1FF1FC03100001032000086F85430C3F3072286F8552068
:400C8000C3F3074286F856201B0E86F857309DF80C3086F849303F2386F84C30002386F84D30FF2286F84E2086F84F3086F850A086F8513086F8523086F85330B34B0793C1
:400CC000B9F1030F38D1002386F8773086F87830212286F87920462286F87A2086F85880C8F3072286F85920C8F3074286F85A204FEA186286F85B20022286F8602086F86E
:400D0000613086F8623086F86330012286F8642086F86530062286F8662086F86730802386F87430292386F876301322984906F17B00FFF777FB1CE0002386F85B3086F8BD
:400D40005C30212386F85D30462386F85E3086F84A80C8F3072386F84B30802386F85830292386F85A3013228A4906F15F00FFF759FB552386F83232AA2386F8333201232A
:400D8000524601993846FFF707FB002840F0F480B9F1030F06D101230AF1060201993846FFF7FAFA0024CDF808A069E04FF4007200210198FFF740FB039BB9F1030F16D049
:400DC000B9F1010F01D1744A01E06FF0FF021343079386F83430C3F3072286F83520C3F3074286F836201B0E86F837301EE0039B63F0FF03079386F834301A0E86F835209B
:400E000086F8362086F83720FF2386F8383086F8393086F83A3086F83B3086F83C3086F83D3086F83E300F2386F83F30009A02F1010A012301993846FFF7AEFA002840F09F
:400E40009D804FF4007200210198FFF7F5FA01230793CDF800A00FE0009A02F1010A012301993846FFF798FA002840F08980079B01330793CDF800A0079B9845ECD80134E5
:400E8000002C93D0DDF808A0B9F1030F01D12C4600E0049C009A551C012301993846FFF77BFA00286ED10095013CF3D1B9F1030F43D1522386F8343086F83530612386F8EB
:400EC0003630412286F83720722186F8181286F8191286F81A2286F81B320BF1FF3386F81C32C3F3072386F81D320BF1FF33C3F3074286F81E221B0E86F81F32022386F8BE
:400F00002032002386F8213286F8223286F82332552386F83232AA2386F8333201230AEB0302019C21463846FFF736FA01230AF1070221463846FFF72FFA002211463846D3
:400F4000FFF762FA003018BF01201CE013201AE00B2018E00C2016E0032014E00A2012E0012010E001200EE00E200CE00E200AE00E2008E0012006E0012004E0012002E0DF
:400F8000012000E0012009B0BDE8F08F000021461C3200003032000000FFFF0010B401380001C0B2054C0444002303E02078C85401339BB29342F9D310BC7047886000408D
:400FC00008B5144B1B7813F0800F0CD0124B1B78DBB2FE2B17D1114B01221A8000225A6001F0ECFB08BD0B4B1B7813F0800F0CD1094B1B78DBB2FF2B09D10122084B1A70E4
:4010000001F09AFA08BD002008BD002008BD002008BD00BF00600040016000406CC4FF1F84C1FF1F014A024B5A6070475553425384C1FF1F8022014B1A7070472E60004060
:401040008022014B1A7070473E600040002305E00F4AD15C0F4AD1540133DBB21E2BF7D90D4B5A690D4B9A420CD10B4B93F8213053B9094B93F82230013BDBB20F2B05D901
:401080000620704706207047062070470020704718C2FF1F98C1FF1F84C1FF1F5553424330B5ADF5017D874B93F82330033B572B00F2E080DFE803F084C0DEDEDEDEDEDECA
:4010C000DEDEDEDEDEDEDE8EDEDECADEDEDEDE98DEDEDEDEDEDEDEDEB6DEACDEDE2CDEDEDEDEDEDEDEDEDEDEDEDEDEDEDEDEDEDEDEDEDEDEDEDEDEDEDEDEDEDEDEDEDEDE26
:40110000DEDEDEDEDEDEDEDEDEDED4DEDEDEDEA26C4B93F83430002B41D16A4B9B6B402B04D94022674B83F83C2002E0654A82F83C30644B1A6C93F83C30134462498B42D2
:4011400004D9C2F1C0035F4981F83C3047F230539A4206D80CE020215C4AD1540133DBB200E00023574A92F83C209342F3D316E0544B1A6C0123520A69460020FFF7F4F8EF
:401180000228F5D0002305E01DF803104F4AD1540133DBB24B4A92F83C209342F4D3494A92F83C10136C0B44474A934203D90522444B83F844200024424B83F834405AE092
:4011C000404D05F13C0000F02FFA0446052385F8443050E03B4D05F13C0000F075FA0446052385F8443046E0364D05F13C0000F0B3FA0446052385F844303CE0314D05F19D
:401200003C0000F0B7FA0446052385F8443032E02C4D05F13C0000F0E9FA0446052385F8443028E0274D05F13C0000F0C7FA0446052385F844301EE0224D05F13C0000F02A
:4012400039FA0446052385F8443014E01D4D05F13C0000F077FA0446052385F844300AE0184D05F13C0000F0D5FA0446052385F8443000E011240CBB124D95F83C20134961
:40128000012001F03DF895F83C20EB689B1AEB6095F82330282B11D12B6C13442B64AB6B9A1AAA6312B9052285F84420054B93F84430032B02D00022024B1A7420460DF5BB
:4012C000017D30BD84C1FF1FC0270900D8C1FF1F10B53E4B93F823302A2B02D02F2B3CD071E03A4B93F84530C3B9022000F0F4FFC2B2364C84F8462035490220FFF74EFEAF
:40130000226C94F84630134432498B4206D9C2F1C00284F84620052284F84420022001F039F82A4B93F846001A6C02441A649A6B121A9A63D968091AD9601AB193F84430D8
:40134000052B05D1214B00221A74052283F8442000221E4B83F8452035E0022001F030F870B3022000F0B8FFC2B2184C84F8462017490220FFF712FE226C94F84630134475
:4013800014498B4206D9C2F1C00184F84610052184F844100D4B93F8460002441A649A6B121A9A63D968091AD9601AB193F84430052B05D1054B00221A74052283F844205A
:4013C000022000F0E7FF112010BD00BF84C1FF1F18C2FF1FC027090010B50E4B93F823301B2B0BD01E2B03D08BB900F005F910BD084B93F8270000F0F5F810BD054C94F829
:40140000270000F0C9F9052384F8443010BD112010BD00BF84C1FF1F10B5144B93F84430033B032B21D8DFE803F00207170FFFF737FE0E4B187410BDFFF7CEFF0B4B1874DB
:40144000052283F8442010BD802201231A700022064B83F8442010BD044C0D22211D012000F04EFF002384F8443010BD84C1FF1F08B55A4B93F84430082B00F2AD80DFE852
:4014800003F0052093ABABABAB969E00022000F097FF002800F0A080022000F01DFFC3B21F2B09D11A464E490220FFF777FD01224A4B83F8442008BD0722484B83F8442080
:4014C00008BDFFF7C3FD002869D1444BDA69002A59D093F92030002B29DA404B032183F8441093F82330282B51D13C4991F8250091F826301B0443EA006391F8270043EA71
:40150000002391F8280003435B020B6491F82A0091F82B3043EA00235B028B639A4236D00B4602211974072183F844102FE02B4B022183F8441093F823302A2B01D02F2BE4
:4015400025D1264991F8250091F826301B0443EA006391F8270043EA002391F8280003435B020B6491F82A0091F82B3043EA00235B028B639A420AD00B46022119740721F6
:4015800083F8441003E00421144B83F84410134B99699960DA60022000F0FCFE08BD08220E4B83F8442008BDFFF792FE08BD802202231A700022094B83F8442008BDFFF7EF
:4015C00039FDFFF73DFD054B1B78012B04D1034B00221A7083F8442008BD00BF84C1FF1F18C2FF1F18B10120024B187070470020704700BFCBC1FF1F0A4B5B78012B0BD004
:40160000084B9B7853B1074BDB78C72B08D90022044BDA7001207047012070470020704700207047CBC1FF1F38B505461F4C02780021204601F0B7FD702323700A23E37115
:401640001B4B9B784BB91A4A127832B9184A52781AB9A2702273627323E0154A1278012A08D1124A0521917024211173002151730F4A1170012B09D10C4A062393703A23B9
:401680001373002353730A4A9370D370084B5B78012B06D1054B02229A703A221A7300225A7312232B70002038BD00BFD8C1FF1FCBC1FF1F0123034A1370002202701846B7
:4016C000704700BFCBC1FF1F10B41C4A002313708021517093700124D47020241471517108219171D37107E003F108021449CC5C12498C540133DBB2052BF5D9002308E0C3
:4017000003F110010E4A1A44147A0C4A54540133DBB2042BF4D9002308E003F12001084A1A44147C054A54540133DBB2042BF4D924230370002010BC704700BFD8C1FF1FBE
:40174000D0C0FF1F0123034A1370002202701846704700BFCBC1FF1F054A03231370002353709370D370042202701846704700BFD8C1FF1F38B50546064C027800212046E3
:4017800001F011FD062363700020A07008232B7038BD00BFD8C1FF1F10F0020F09D010F0010F03D00022044B5A7002E00122024B5A700020704700BFCBC1FF1F0A4B0022F2
:4017C0001A705A709A700821D9701A715A71042199719321D971022119725A729972DA720C23037010467047D8C1FF1F084B00221A700921597027219970C021D9701A7167
:401800005A7102219971DA710823037010467047D8C1FF1F0123034A1370002202701846704700BFCBC1FF1FFEE700BFF0B40022174611E050F82760F3B226F0FF0608E0CE
:4018400001EB420511F812406D78A5550132013BDBB2002BF4D10137152FEBD9F0BC7047064B1B78DBB203F00701054A11701B09013213704422034B1A707047CF01004948
:401880006E5800407658004008B50A46002101F08AFC08BD38B50B22244B1A80182202331A70062203F27E231A705222A3F580731A701F4B1B78DBB21E4A13704FF4E162C2
:4018C0001D4B1A8041F25122023B1A80002419250CE01A4B1B7803F0010343EA440404F003044FF4F07001F0E7FB013D0DB1032CEFD115B90320FFF797FF114A4FF480734D
:4019000013800723137000230E490B7048200231087013700532137002220B4B1A700B4A137843F00103137038BD00BF804000400F010049A1460040224200402542004005
:40194000044000400640004001400040A243004008B501F01DFC08BD38B572B6344A137843F00403137000240CE0324D630019194A0011462A44084691882858FFF784FFBD
:401980000134E4B20A2CF0D900240BE02949A3001819420088188022816C406CFFF7D8FF0134E4B2002CF1D023494FF09040FFF73DFF224A137843F002031370103213783A
:4019C00043F0020313701E4C237843F040032370A2F58632513A137843F0100313700A2218491948FFF7B4FF0A2218491848FFF7AFFF0A2217491848FFF7AAFF0A221749B1
:401A00001748FFF7A5FF174A137843F008031370154D61232B70FFF73DFF81232B70FFF71FFF0E2221461148FFF792FF38BD00BFE8460040443200005800004803500140B7
:401A4000A04300406C020048F05100407802004810510040840200483051004090020048505100402243004000480040B043004008B501F061FB03680C2B00D1FEE7FEE7B8
:401A800008B5104E104D16E029686B68AC68002204E051F8040B43F8040B0432A242F8D1E868002203E0002143F8041B04328242F9D11035013E002EE6D101F043FBFEF794
:401AC000E1FAFEE7010000004033000008B5104A104B1A60104A136843F40073136000230AE0032B03D80D4A52F8231000E00C490C4A42F8231001332F2BF2D90A4B1A78B2
:401B00000A4B1A70074A0A4B1A60FFF725FF08BD0004FA050CED00E014ED00E000000000711A000000C0FF1FBC760040C0C0FF1F08ED00E001BE704710B5044605E0084BFF
:401B4000186801F0B9FAA4F50044B4F5004FF6D8034B586800FB04F001F0AEFA10BD00BFE8C0FF1F08B5034B1B7A00FB03F001F0A3FA08BDE8C0FF1F70B504460E46074BFA
:401B80001D681F2802D90020FFF7D4FF04F01F04103455F8240045F8246070BD08ED00E038B504460D46072902D90020FFF7C2FF1F2C02D90020FFF7BDFF04F01F0000F19E
:401BC000604000F564406D01EDB2057038BD00BF0222014B1A60704700E100E00122014B1A60704700E100E008B501F06DFA0C4A137843F0200313700332137843F01003DE
:401C00001370013A137843F01003137001F060FA00F00CFAFFF7DCFFFFF7E0FF08BD00BF986500400222014B1A60704780E100E00122014B1A60704780E100E010B5FFF76C
:401C4000F1FF064B1C78064A137803F009031C4300231370FFF7BCFF204610BD6B65004058C2FF1F10B5FFF7E3FF064B1B78064A147804F040041C4300231370FFF7AEFF47
:401C8000204610BD6A65004060C3FF1F10B504462B4B1A7802F0FF0312B1013BDBB200E0FE23284A1278D2B29342F1D0FFF7BAFF254B1978254A137803F009030B43137079
:401CC0001F4B1A78D2B21F4B1B78DBB29A4207D11E4B1B7813F0040F02D01D4B1C702CE0184A13780133DBB213701378DBB2FF2B02D10022134B1A70124B1A78D2B2104B24
:401D00001B78DBB29A420ED10D4A13780133DBB213701378DBB2FF2B02D10022084B1A7001220C4B1A70074B1B78DBB20A4AD4540A4A137843F004031370FFF749FF10BDF5
:401D400061C3FF1F5FC3FF1F6B65004058C2FF1F486500405BC3FF1F5CC2FF1F8B65004010B5FFF765FF134B1A78D2B2124B1B78DBB29A4214D0114B1B7813F0FF0F0CD157
:401D80000C4A13780133DBB213701378DBB2FF2B06D10022074B1A7002E00022074B1A70044B1B78DBB2064AD45CE4B2FFF716FF204610BD5EC3FF1F5CC3FF1F5DC3FF1F8A
:401DC00064C3FF1F08B501E0094B1B78094B1B7813F0200FF8D1FFF72BFF0023064A1370064A1370064A1370FFF7F8FE08BD00BF586500406A6500405DC3FF1F5EC3FF1F82
:401E00005CC3FF1F08B501E00A4B1B780A4B1B7813F0200FF8D101F057F9084B1A7842F001021A701A7802F0FE021A7001F050F908BD00BF586500406A6500409865004002
:401E400010B50F22174B1A70174C0223236007210120FFF7A5FE15490120FFF78DFE0123236007210020FFF79BFE11490020FFF783FEFFF7C7FF00240E4B1C700E4B1C707A
:401E80000E4B1C700E4B1C700E4B1C700E4B1C70FFF7D4FEFFF7E6FE0C4B1C702022013B1A7010BD8865004080E100E0ED1E00008D1F00005DC3FF1F5EC3FF1F5CC3FF1F55
:401EC0005BC3FF1F61C3FF1F5FC3FF1F8B65004008B5054B1B7823B9FFF7B2FF0122024B1A70FFF781FE08BDCFC1FF1F28E01F4B19781F4A137803F009030B43137013789D
:401F000013F0040F24D01B4B1B7813F0FF0F0CD1194A13780133DBB213701378DBB2FF2B06D10022144B1A7002E00022114B1A70114B1B78DBB2114AD35CDBB2104A137000
:401F40000D4B1A78D2B20F4B1B78DBB29A42CED1094B1A78D2B20B4B1B78DBB29A4204D1094A137803F0FB03137070476B65004058C2FF1F5BC3FF1F61C3FF1F5CC2FF1F62
:401F8000486500405FC3FF1F8B650040204B1A7820490B7803F0400313430B7032E01E4B1A78D2B21D490B780133DBB20B700B78DBB2FF2B02D10021184B1970174B197811
:401FC000C9B2174B1B78DBB299420ED114490B780133DBB20B700B78DBB2FF2B02D100210F4B197001210F4B19700C4B1B78DBB20D49CA54064B1A7806490B7803F0400322
:4020000013430B70034B1B7813F0200FC7D170476A65004060C3FF1F586500405CC3FF1F5EC3FF1F5DC3FF1F64C3FF1F054A137843F0010313701032137843F00103137006
:40204000704700BFA2430040044A137803F0FB03800000F0040018431070704710510040F8B501F031F80646384A137843F0010313701032137843F0010313700127344B4C
:402080001F700225943B1D7002F5E2521B32137803F07F0313700020FFF764FD2D4C237803F0F90323702C4A137803F0DF03137023783B4323703846FFF754FD2820FFF7FE
:4020C00051FD264B1A7802F07F021A701A7802F0BF021A7023782B4323702846FFF742FD237843F00403237000231D4A137001321370304600F0ECFF07211720FFF750FD66
:4021000018491720FFF738FD07211820FFF748FD15491820FFF730FD07212846FFF740FD12492846FFF728FD07210320FFF738FD0F490320FFF720FD07210C20FFF730FD60
:402140000C490C20FFF718FDF8BD00BFA54300409D6000409443004012600040F85100408460004071280000E12600000D2800003D2800007928000008B51F4B18700023D7
:402180001E4A13701E4A13701E4A13701E4A13701E4A13701E4A13701E4A13701E4B4FF400021A604FF080721A6004221A6008221A6011B1012906D00BE0184A137803F00E
:4021C000FE0313700AE0154A137843F00103137004E0124A137843F0010313700322104B1A708022203B1A70012000F065FF04220C4B1A7008BD00BF78C4FF1F7EC4FF1FFD
:402200007CC4FF1F7DC4FF1F79C4FF1F64C4FF1F7BC4FF1FF4C4FF1F00E100E009600040286000401260004038B504460D46064B1B7823B9FFF714FF0122034B1A7029466C
:402240002046FFF799FF38BDD0C1FF1F00230A4A13700A4A13700A4A13700A4A13700A4A13700A4A13700A4A13700322094B1A708022203B1A7070477EC4FF1F7CC4FF1FC3
:402280007DC4FF1F79C4FF1F64C4FF1F7BC4FF1FF4C4FF1F28600040014B1878704700BF7DC4FF1F064B1B7813F0FF0F05D0044B1878C0B200221A7070470020704700BF5E
:4022C0007CC4FF1F00EB40008300024A13445878704700BF88C4FF1F431EDBB2072B0BD8064B00011A18185C00F00F00537843EA0020023880B2704700207047FC5F0040D8
:40230000431EDBB2072B3CD8F0B4074600EB4004A3001C4C2344DB889BB2C3F500739A4208D900EB400293002344DA8892B2C2F5007292B200EB4004A300124C2344DB781B
:4023400043EA1223104D04012E192B55D3B2737039B909E0CE5C3D010C4C665501339BB200E000239A42F5D8420002449300054A134400225A705A79D2B20001044B1A5425
:40238000F0BC704788C4FF1FFC5F004078600040FE5F0040431EDBB2072B0BD8420002449300054A134400225A705A79D2B20001024B1A54704700BF88C4FF1FFE5F0040C0
:4023C000431EDBB2072B06D80001044B185C00F01000C0B270470020704700BFFE5F00401D4B19781D4A13889BB20B449BB2138000220FE01A494B681B78DBB219488354C9
:402400004B6801334B600132D2B20B889BB2013B9BB20B80124B1B889BB20BB1072AE9D90D4B1B78DBB2082B00D05AB10E490B7883F080030B700F210C4B197002210C4B08
:40244000197004E0022309490B7009490B70094B1A70014B1A707047F4C4FF1FFAC4FF1F6CC4FF1F006000407AC4FF1F65C4FF1F7EC4FF1FF5C4FF1F0222074B1A708022A9
:40248000064B1A700F22064B1A700023054A1370054A1370012070477EC4FF1F7AC4FF1F65C4FF1FF4C4FF1FF5C4FF1F08B5FFF797FF08BD10B4194B197801F00F010239E3
:4024C000C9B2174A13889BB20B449BB21380002011E0144A5468144B1B5CDBB223705368013353600130C0B20139C9B213889BB2013B9BB213800B4B1B889BB20BB100299F
:40250000E7D10A4B19700A4A137883F0800313700B22084B1A7010BC704700BF29600040FAC4FF1F6CC4FF1F00600040F5C4FF1F7AC4FF1F65C4FF1F0623064A1370064A08
:4025400013708022054B1A700022054B1A700120704700BF7EC4FF1F65C4FF1F7AC4FF1FF5C4FF1F064B9B6843B1054B9A6810709A6804490988518000229A60704700BF92
:402580006CC4FF1FFAC4FF1F08B5134B1A78D2B21A701B78DBB213F0800F02D00F4A137008BD0220FFF7DEFF0D4B1B7803F06003202B05D0402B06D043B900F005FC06E0A7
:4025C00000F08AFD03E000F061FD00E0002010B90322024B1A7008BD2860004065C4FF1F0060004008B5094B1978094A13889BB20B449BB213800022064B1A700120FFF7DA
:40260000B1FF0322044B1A7008BD00BFF4C4FF1FFAC4FF1F7EC4FF1F65C4FF1F08B50B4B1B78DBB2042B06D0062B07D0022B0BD1FFF7D8FF08BDFFF73DFF08BD0320FFF724
:4026400091FF0322024B1A7008BD00BF7EC4FF1F65C4FF1F08B50022044B1A700120FFF781FF0322024B1A7008BD00BF7EC4FF1F65C4FF1F08B50B4B1B7813F0FF0F07D09F
:40268000084A137843F0800307490B70002313700022064B1A700120FFF764FF0322044B1A7008BD64C4FF1F086000407EC4FF1F65C4FF1F08B5094B1B78DBB2042B06D011
:4026C000062B07D0022B07D1FFF7F0FE08BDFFF7C1FF08BDFFF7CEFF08BD00BF7EC4FF1F08B5284B1B78DBB213F0100F48D013F0800F0CD003F00F03012B16D1FFF744FFB9
:40270000214B1B7813F0800F11D1012312E013F0400F03D0FFF7CEFF01230BE013F0200F07D0FFF77BFF012304E0002302E0002300E0002323B3134B1B7813F0800F1FD124
:40274000124B1B78124A12781343124A13701278D2B2934214D10C4B1B78DBB2094A127812F0800F07D1084B1B78DBB2054A1370137803F00F03044A1278D2B29342EAD108
:4027800008BD00BF2860004065C4FF1F7AC4FF1FF5C4FF1F296000400022064B1A80064B9B682BB1044A916800230B7092685380704700BFFAC4FF1F6CC4FF1F08B50F4BE4
:4027C0001B889BB213B9FFF757FE15E002220C4B1A7000220B4B1A70FFF7DEFF0A4AD179937943EA0123054A128892B2934201D2024A1380FFF7F4FD012008BD6CC4FF1F39
:402800007EC4FF1F7AC4FF1F006000400122094B1A700F3B9B7C084B1B7B03F00303934204D0054AD37B83F08003D3730122024B5A7370470B60004088C4FF1F02220A4BF4
:402840001A700F3B93F82230084B1B7E03F00303012B04D0054AD37E83F08003D3760122024B5A76704700BF0B60004088C4FF1F08B5FFF7EBFC08BD08B500F013FC08BD38
:4028800010B401233EE019461A010C242148845403EB4300820020480244527912F0FF0F13D003EB430082001B480244127912F0800F04D01801194A024494700AE01801F3
:4028C000164A02440820907004E01801134A0244802090704800084482000F480244D488E4B208010B4901448C71D088C0F30720C871D088C0B20871D288C2F307224A71E5
:402900000133DBB2082BBED9FF22054B1A7010BC704700BF7060004088C4FF1FFC5F00400A600040074B1A78074B03EBC2035B681A7C824204D9C000103018444068704772
:402940000020704778C4FF1F94320000F8B5404B1B7813F0FF0F79D03D4B18780138C0B2FFF7E0FF047AC2683A4B1878C0B200236AE01178884264D13749095CC9B2557852
:40298000A9425ED1917801F07F01D67806F00306DFF8C8E04D000D44AF000EEB07054FF0000C85F803C092F802C085F804C092F803C00EF807C097882F8192F90250002D5A
:4029C0000DDA012E01D1072700E00D274E000E44B500224E35446F7101266E700CE0012E01D1052700E009274E000E44B5001B4E35446F7100266E70DFF868E00F010EEB1E
:402A000007060125B57001FA05F529448D00134929440D89C5F307250EF807500D89EDB27570CE88F6B20E4D3D44AE71CE88C6F30726EE71CE88F6B22E71C988C1F3072137
:402A4000697108320133DBB2A34292D3F8BD00BF7DC4FF1F79C4FF1F68C4FF1F88C4FF1F70600040FC5F0040034B1A78034B03EBC2035868704700BF78C4FF1F9432000073
:402A800008B5084B18780138C0B2FFF74BFF30B142681279023200EBC203586808BD002008BD00BF7DC4FF1F2DE9F041002310E0684D5900CA189600AC190022AA55A27031
:402AC000E2702281A272627034462C4462710133DBB2082BECD940B90AE000225E49CA545E49CA540133DBB200E00023002BF4D05B4B1B7813F0FF0F00F0A980584B1878AD
:402B00000138C0B2FFF70EFF4368DB7913F0400F05D0544A137843F00103137004E0514A137803F0FE031370057A012464E0C16800235DE08A7802F07F02944255D126460F
:402B400004EB4407BA00434F3A44128992B28F88BA4207D204EB440E4FEA8E02DFF8F4E0724417810A783C4FBA5CD2B24F78BA423BD191F802C0DFF8DCE0720032449700B0
:402B80000EEB070282F804C0CA780EF80720CA7802F0030291F90270002F13DA012A02D14FF0070801E04FF00D08DFF8A8E0720002EB060C4FEA8C07774487F80580012612
:402BC0007E7012E0012A02D14FF0050801E04FF00908DFF880E0720002EB060C4FEA8C07774487F8058000267E7008310133DBB2AB429FD30134E4B2082C98D9C068002220
:402C00000CE0837803F07F0310F8084B03EB43039900104B19448C720132D2B2AA42F0D3FFF72EFF104B1860002101230BE0094D5A00D01884002C44E180228992B211449D
:402C400089B20133DBB2082BF1D9FFF719FEBDE8F08100BF88C4FF1F68C4FF1FF8C4FF1F7DC4FF1F7BC4FF1F84C4FF1F08B5154B1B7903F07F035A1ED2B2072A20D8590025
:402C800019448A0010490A44917841F0010191700021D170517841F002015170127912F0800F05D01B01094A1A448D23937004E01B01064A1A4489239370FFF73DFC08BD67
:402CC000002008BD0060004088C4FF1FFC5F0040274B1B7903F07F035A1ED2B2072A44D810B5590019448A0022490A44917801F0FE0191700021D1701F4C1801215C01F07A
:402D00007F012154517801F0FD015170127912F0800F13D003EB43018A0016490A445278D2B2012A04D1224602440C23937019E01B01114A1A440D23937013E003EB430169
:402D40008A000C490A445278D2B2012A05D11B01094A1A440823937004E01B01064A1A4409239370FFF7E8FB10BD0020704700BF0060004088C4FF1FFC5F004010B50E4B00
:402D80001C79E4B20D4B18780138C0B2FFF7CAFD43681B799C4201D9012C0AD8084A135DDBB208490B55044B9B78DBB21355012010BD002010BD00BF006000407DC4FF1FA2
:402DC00068C4FF1FF8C4FF1F10B59A4B1B78DBB20021994A118013F0800F79D0954A5278D2B20A2A00F21D81DFE812F036001B011B011B011B011B010B001B015F001B0157
:402E000067008C4BDB78DBB2012B09D1FFF72CFE4268894B5A6012221A80FFF7CFFC10BD844BDB78DBB2022B13D1824B9878FFF779FD002800F0F78042687F4B5A605A6832
:402E4000D1785A68927842EA01221A80FFF7B6FC10BD00F041F910BD13F0030317D0022B40F0E38074490B80724B1B7903F07F0303EB43039A00714B1A449278D2B2704BF9
:402E80001A7000225A704B60FFF798FC10BD6A4902230B806B4B1A78D2B2694B1A7000225A704B60FFF78AFC10BD634B01221A80654A5A60FFF782FC10BD5F4A01231380D8
:402EC0005C4B1B7961490B445360FFF777FC10BD584A5278013A0A2A00F2A980DFE802F047A774A706A7A7A70EA72B00514B9B78DBB2574A1370FFF71FFB10BD4D4B9B783A
:402F000003F0FF041BB1601EC0B2FFF70BFD04B110B9002C40F0A6804B4B1B78DBB29C4206D0494B1C7001204A4B1870FFF7BCFDFFF702FB10BDFFF721FF002800F0948068
:402F40003C4A1379DBB21279D2B243490A70434AD25CD2B23D49CB5CDBB29A4204D001223C4B1A70FFF7F2FCFFF7E6FA10BD03F00303012B17D04BB1022B77D12D4B9B78B1
:402F800013F0FF0F74D1FFF7A3FE10BD294B9B78DBB2012B6ED12B4A137803F0FD031370FFF7CAFA10BD234B1B7913F0FF0F63D1204B98781B79DBB22949CA5C22EA000252
:402FC000CA54FFF7B9FA10BD03F00303012B17D04BB1022B52D1174B9B7813F0FF0F4FD1FFF744FE10BD134B9B78DBB2012B49D1144A137843F002031370FFF79DFA10BDF8
:403000000C4B1B7913F0FF0F3ED10A4B98781B79DBB21349CA5C22EA0002CA54FFF78CFA10BD002010BD002010BD002010BD002010BD00BF006000406CC4FF1F88C4FF1F3D
:40304000D4C1FF1F7BC4FF1F7DC4FF1F68C4FF1F64C4FF1F7CC4FF1F79C4FF1FF8C4FF1F80C4FF1F002010BD002010BD002010BD002010BD002010BD002010BD002010BDE1
:40308000002010BD002010BD002010BD044B1B7813F0800F01D0024B5B780020704700BF00600040024B1878C0F38010704700BF8F450040000000000230800803D000BFB8
:4030C00001380046FCD17047EFF3108072B6704780F31088704700BF08B5144B1B7803F00303012B02D0022B04D00FE00F4B1B79DBB20CE00D4B1B7903F07F0303EB430369
:403100009A000B4B1A44937ADBB200E00023012B07D8084A1268D35C082B04D1FDF750FF08BD002008BD002008BD00BF0060004088C4FF1F84C4FF1F014B1868704700BF53
:4031400058C1FF1F0E4B70B51E460E4C0025E41AA410A54204D056F8253098470135F8E700F0DCF8084B094C1E46E41AA4100025A54204D056F8253098470135F8E770BD8D
:403180002833000028330000283300003033000010B5431E0A44914204D011F8014B03F8014FF8E710BD03460244934202D003F8011BFAE77047000000000000000000004F
:4031C000000400020001800040002000100008000400020000000000008000400020001000080040002000100008000400020000222A2B2C3A3B3C3D3E3F5B5D7C7F000093
:40320000222A2B2C2E3A3B3C3D3E3F5B5D7C7F00EBFE904D53444F53352E30004E4F204E414D45202020204641543332202020004E4F204E414D4520202020464154202096
:4032400020202000005100401000205100401000405100401000605100401000C0510040100000000140001000140140000480180140800300400140000A004C0140000229
:40328000005001402000000000180140EC01004880000000010000009C3200000100000008330000000000000000000001000000B432000001000000E83200000200000040
:4032C000D8320000000000000000000000000000D432000008000000000081024000080000000202400008000902200001010080190904000002080650000705810240009D
:4033000000070502024000001201000200000008B40451800000000000014300F8B500BFF8BC08BC9E4670474D000000CD1A0000F8B500BFF8BC08BC9E46704729000000F8
:4033400050330000C8C0FF1F98000000A00300000000000001000000414E4B532000000048494D410000000030323139000000000000E02EC05D00001800000000366E01C8
:4033800000000000000000000000000000000000000000000000000000000000000000001A33000000000000000000000000000000000000000000000000000000000000C0
:4033C0000000000000000000000000000000000000000000000000000000000000000000F8C0FF1F00000000000000000000000000000000000000000000000000000000F7
:40340000000000000000000000000000000000000000000000000000000000000000000000000000000000000000000000000000000000000000000000000000000000008C
:40344000000000000000000000000000000000000000000000000000000000000000000000000000000000000000000000000000000000000000000000000000000000004C
:40348000000000000000000000000000000000000000000000000000000000000000000000000000000000000000000000000000000000000000000000000000000000000C
:4034C00000000000000000000000000000000000000000000000000000000000000000000000000000000000000000000000000000000000000000000000000000000000CC
:020000040001F9
:0200000480007A
:400000000145004002520040016500400105014001090140010B0140021501400217014028190140351A01403A1B0140054001400341014005420140024301400347014023
:400040000448014006490140044C0140054D014002500140015101407E0219407C40880FE6029C808480E201E601EA02EE020422050406020E290F8017151D941E422422BF
:400080002544261827282E212F2037293D803E1645A047084D024E094F045620574465016E156F1576029C80C0F0C2F0C470CAE0CCE0CEF0D070D230D880EA02EE020C02CE
:4000C0000E0D18091A062405260A28032A0C300F3A025440560458045B045F01828084408513870488118A228C8D8D0E9002920D948D9505973A98429A089B209C8DA00DBA
:40010000A280A462A504A614A739A88DB00FB280B470B530B70FB980BA22BE04D409D604D804D904DB04DF010040042105020622072009200D020E19120813081719184082
:4001400019011D261E081F20254026202F20362037083D885E425F24600161046202630864806702822290209251930699029A229B199C809D01A104A209A304A520A60469
:40018000A720A914AB01AE01C0F1C2F2C476CA40CC60CE50D6F0D89FEC01EE023020330136403702CCF09F03A420A64086409F03A420A640E6409F03A42009080F40C20C4C
:4001C000A420AF03EA40EE4060108030A420D840E280E6800B20AD08AF40C20850049008A804AF10D40410011C0100AF049A00000198000207023898843800C06098000240
:400200000A2110D85613096484000000049A800080FC0403840200000000000008007F13020F80E0080000A0000051003206100005DECB0F1FFFFFFF2200F00804000000E7
:400240000000022C04040404000000010000C00040011011C001001140014001000000000000000000000000000000004000000000000000C00000002400102F0F00000057
:4002800000000000C00000C040004000000000000800000808000800000000000000000000000000000000000000000000000000000000000000000000000000000000001E
:4002C00000000000000000000000000000000000000000000000000000000000000000000000000000000000000000000000000000000000000000000000000000000000FE
:4003000000000000000000000000000000000000000000000000000000000000000000000000000000000000000000000000000000000000000000000000000000000000BD
:40034000000000000000000000000000000000000000000000000000000000000000000000000000000000000000000000000000000000000000000000000000000000007D
:40038000000000000000000000000000000000000000000000000000000000000000000000000000000000000000000000000000000000000000000000000000000000003D
:0200000490006A
:0400000000004005B7
:0200000490105A
:04000000BC90ACAF55
:0200000490303A
:02000000855A1F
:0200000490402A
:4000000000000000000000000000000000000000000000000000000000000000000000000000000000000000000000000000000000000000000000000000000000000000C0
:400040000000000000000000000000000000000000000000000000000000000000000000000000000000000000000000000000000000000000000000000000000000000080
:0200000490501A
:0C00000000012E16C06900012E2B45C324
:00000001FF